:0A0000000C948A000C9400000C948C
:10000A0000000C9400000C9400000C9400000C9466
:10001A0000000C9400000C9400000C9400000C9456
:10002A0000000C9400000C9400000C9400000C9446
:10003A0000000C9400000C9400000C9400000C9436
:10004A0000000C9400000C940000FEFDFBF737380A
:10005A00392F3435362A3132332D43303D2B0000C7
:10006A0000000000444F4F52204953204F50454E44
:10007A00444F4F52204C6F636B656400456E746544
:10008A00722050617373776F7264203A5365747487
:10009A00696E672050617373776F726457726F6EFF
:1000AA00672050617373776F726452657365742049
:1000BA0050617373776F7264202E2E2E2E2E2A2A89
:1000CA002A2A2A2A2A2A2A2A2A2A80C00600040038
:1000DA0068000C0060026E000B006D027A001000CE
:1000EA007902860010008A0296000E009B02A60082
:1000FA001400AA02B4000600BF02C8000600C60225
:10010A00CE000200CD02D4000000F894EE27ECBB2A
:10011A00F1E0FBBFEBBFE5BF8DE0A2E0BB27ED93AB
:10012A008A95E9F780E098E0A0E6ED930197E9F770
:10013A00E6EDF0E085919591009761F0A591B59172
:10014A0005901590BF01F00105900D920197E1F716
:10015A00FB01F0CFEFE5EDBFE8E0EEBFC0E6D2E08D
:10016A000C947001BA93AA931A930A9300E010E0D0
:10017A00EA81FB810E171F0754F4F801AC81BD8197
:10018A00AE0FBF1FAC91B3D10F5F1F4FF1CF1981D3
:10019A000881269608951A930A9304E010E0143011
:1001AA00C0F4E12FF0E0EC5AFF4F049002BA8499B0
:1001BA0002C000E00EC0859902C001E00AC086991B
:1001CA0002C002E006C0879902C003E002C01F5FB6
:1001DA00E6CF0430B1F0849BFECF859BFECF869B91
:1001EA00FECF879BFECFE12FA8E5B0E0F0E00E94AA
:1001FA00EE02AE0FBF1FE02FF0E0EA0FFB1FE49103
:10020A0067C0E0E065C00E94F30200E010E00E94CF
:10021A00BD02C1DF3E2F333429F45DD10E94BD02F5
:10022A0000E010E0E6E0F0E0E017F10711F43D33FA
:10023A0009F011C050D1EAE8F2E0FA93EA93A1E199
:10024A00B0E090DFA0EDB7E00E94E4020E94C50290
:10025A00B0E088DF1DC0303079F03F3269F03A32C1
:10026A0059F03B3249F03D3239F03D3329F0E6E0AE
:10027A00F0E0E017F10709F40AC0333441F0A32F84
:10028A0036D1F801E154FD4F30830F5F1F4FC1CFC4
:10029A000E94F802249608951A930A9300E010E047
:1002AA000630E0E01E0794F4AFEBB2E0A00FB11FF6
:1002BA000C90A6ECB2E0A00FB11FEC91E01519F07A
:1002CA00E0E0F0E005C00F5F1F4FEACFE1E0F0E0A9
:1002DA00099119910895E0E0EABBEBBBEFE0E1BBBD
:1002EA00E0EFE2BBA0E117D18EDF55DF1E2F103001
:1002FA0009F4C2C01B3231F01D3221F01F3211F055
:10030A001A32F1F51B3221F4E1E0F0E03F0137C087
:10031A001D3229F4E1E0F0E0E615F70509F004C022
:10032A00E2E0F0E03F012BC01A3229F4E2E0F0E00B
:10033A00E615F70509F004C0E3E0F0E03F011FC04D
:10034A001F3229F4E3E0F0E0E615F70509F015C0DD
:10035A006624772488249924BED044245524EAEAC2
:10036A00F2E0FA93EA93A5E1B0E0FCDEA8EEB3E08E
:10037A000E94E402B0D047DF02C0662477247CC022
:10038A00133421F400240414050409F012C066246D
:10039A00772488249924E1E0F0E02F019CD0EDE64F
:1003AA00F2E0FA93EA93ACE0B0E0DCDEA0EDB7E06D
:1003BA0059C0133481F01A3271F01F3261F01B32C6
:1003CA0051F01D3241F01D3331F00E94CD0219F077
:1003DA000E94D20209F00CC066247724F401EA5381
:1003EA00FD4F1083F40131964F01A12F80D044C0F4
:1003FA00133421F40024081409040CF006C06624FE
:10040A00772469D08824992430C01D3331F40E949E
:10041A00CD0219F00E94D20209F003C066247724A3
:10042A0015C01D3331F40E94CD0219F40E94D20284
:10043A0009F022C0662477242FDFE130A0E0FA0712
:10044A0029F4442455240E94C50214C044D08824A7
:10045A009924EBE9F2E0FA93EA93AFE0B0E082DEA6
:10046A00A8EEB3E00E94E40236D0E9E7F2E0FA939C
:10047A00EA93A1E1B0E076DE38CFFFCFAA93EBB3DF
:10048A00EF70AE2FE881E07FEA2BEBBB82E08A9522
:10049A00F1F7DA9A82E08A95F1F7DA9882E08A959A
:1004AA00F1F764C0AA93A881E9DFE881E295E883BD
:1004BA00A881E4DF81E18A95F1F758C0AA93E8811F
:1004CA00F0E0E353FD4FE081A981AE0FEBDFB98085
:1004DA00A88022960895A2E00E94D702ACE0E2DF4B
:1004EA00A1E00E94D702E0E0AE2EBE2E0895AA93A4
:1004FA00A881AA3011F0BD1440F0E0E0EA93A39479
:10050A00AA2DDCDFA881AA3089F1B394D89AA881F0
:10051A00C9DFD8982BC0AA93EAB3E06FEABBD29A94
:10052A00D09AD19ADA98D898D998D880E881E058A0
:10053A00E093CF02E881E054E093D002A4E1B0E076
:10054A000E94E4020E94DD020E94DD020E94DD0296
:10055A00A0E294DF81E28A95F1F7A8E2A3DFA4E0A2
:10056A00A1DFA5E89FDFA6E09DDFB5DF219608950C
:10057A00E9E7F2E0FA93EA93A1E1B0E00C94B7005C
:10058A000E947002E0E6F2E0FA93EA93ADE0089581
:10059A00E6E0F0E0E815F9050895E1E0F0E0E41599
:1005AA00F50508950E945702A3E0B0E00C94E40216
:1005BA00A0E30E94430281E28A95F1F7089510961A
:1005CA0039F08AEF90E00197F1F7A8951197C9F7EA
:1005DA000895EE0FFF1FEE0FFF1F08953A932A9317
:1005EA001A930A9308953B812A81198108810895F3
:00000001FF
